:020000040000FA
:100000000C94ED020C9415030C9415030C94150339
:100010000C9415030C9415030C9415030C94150300
:100020000C9415030C9415030C9415030C941503F0
:100030000C9415030C9415030C9415030C941503E0
:100040000C94E2100C9415030C9452110C942C1186
:100050000C9415030C9415030C9415030C941503C0
:100060000C9484110C9415034E414E494E49545939
:10007000494E46CDCCCC3D0AD7233C17B7D1387773
:10008000CC2B329595E6241FB14F0A000020410089
:1000900000C84200401C4620BCBE4CCA1B0E5AAED3
:1000A000C59D7400407A10F35A00A0724E180900E2
:1000B00010A5D4E80000E87648170000E40B5402CD
:1000C0000000CA9A3B000000E1F505000080969808
:1000D00000000040420F000000A086010000001058
:1000E0002700000000E8030000000064000000009A
:1000F000000A00000000000100000000002C76D87B
:1001000088DC674F0823DFC1DFAE59E1B1B796E560
:10011000E3E453C63AE651997696E8E6C28426EBC4
:10012000898C9B62ED407C6FFCEFBC9C9F40F2BAD7
:10013000A56FA5F490055A2AF75C936B6CF9676D6F
:10014000C11BFCE0E40D47FEF520E6B500D0ED90C4
:100150002E0300943577050080841E080000204E91
:100160000A000000C80C333333330F986E1283112A
:1001700041EF8D2114893BE65516CFFEE6DB18D101
:10018000844B381BF77C1D901DA4BBE424203284D3
:10019000725E228100C9F124ECA1E53D27090061CE
:1001A000727261795F7363616C655F63616C6962D0
:1001B00000092009004765745F76616C756500472A
:1001C000696120747269206F666673657420646F5C
:1001D0006320454550524F4D206B6869206B686F16
:1001E0006920646F6E67203D200054696E6820634B
:1001F00068696E6820676961207472692053636161
:100200006C653A206E68617020736F20636F2064A4
:10021000617520222B2220686F616320222D22200D
:1002200070686961207472756F6320736F004B682A
:1002300061692062616F206B686F69206C756F6EF9
:10024000673A20226E68617020736F220054686FD5
:1002500061742063686520646F2063616C6962204B
:1002600063616E3A206E68617020226578697463FC
:10027000616C6962220056616F2063686520646F5B
:100280002063616C69622063616E3A206E68617000
:10029000202263616C69625F63616E22004765744E
:1002A00020476574207363616C6520353A20200017
:1002B00009004765742076616C756520353A202009
:1002C0000047657420476574207363616C65203452
:1002D0003A20200009004765742076616C7565201E
:1002E000343A2020004765742047657420736361A9
:1002F0006C6520333A202000090047657420766140
:100300006C756520333A202000476574204765747A
:10031000207363616C6520323A2020000900476534
:10032000742076616C756520323A20200047657430
:1003300020476574207363616C6520313A2020008A
:1003400009004765742076616C756520313A20207C
:10035000004475206C69657520646F632064756F57
:10036000633A2000446120676869206475206C69E5
:10037000657520746875203520210044696120630B
:10038000686920626174206461753A2000446120CC
:10039000676869206475206C6965752074687520CC
:1003A00034202100446961206368692062617420FF
:1003B0006461753A20004461206768692064752093
:1003C0006C6965752074687520332021004469616B
:1003D0002063686920626174206461753A2000447A
:1003E0006120676869206475206C69657520746890
:1003F00075203220210044696120636869206261B0
:1004000074206461753A2000446120676869206443
:1004100075206C6965752074687520312021004451
:1004200069612063686920626174206461753A20A3
:1004300000204B6700534F204B592043414C494209
:100440003A20007363616C652076616C7565203DB0
:100450002000204B672009000909000909004368B2
:10046000756F69206E68616E2064756F63206C61C2
:1004700020746578743A00696E707574203D2000B0
:100480005363616C655F76616C75652074696E6835
:100490002064756F633A20004368756F69206E6849
:1004A000616E2064756F63206C61206B686F6920DA
:1004B0006C756F6E673A00696E707574203D200030
:1004C000476961207472692073617520746861796D
:1004D00020646F693A20004368756F69206E686117
:1004E0006E2064756F63206C6120736F3A00696ED3
:1004F000707574203D200044616E672063616C69F3
:10050000622063616E20210043616C6962204C6F40
:10051000616463656C6C3A202000496E70757420CC
:10052000746578743A20200054686F6174206361A8
:100530006C69622021007363616C655F76616C7524
:10054000655F63616C69623A20200043616C696297
:10055000204C6F616463656C6C3A202000496E70BA
:10056000757420746578743A202000737472696E13
:1005700067436F6D706C657465203A000000000081
:10058000240027002A000000000023002600290084
:100590000000000800020100000304070000000042
:1005A000000000000102040810204080010204083D
:1005B000102001020408102000000000250028007F
:1005C0002B000404040404040404020202020202D4
:1005D000030303030303B412872111241FBECFEFCB
:1005E000D8E0DEBFCDBF27E0A4E0B5E001C01D929A
:1005F000AF34B207E1F715E0A0E0B1E0E6E4FBE5D7
:1006000002C005900D92A430B107D9F712E0CCEEEC
:10061000D2E004C02197FE010E94F428CB3ED1070E
:10062000C9F70E94C7130C94962D0C9400000895EE
:100630004F925F926F927F928F929F92AF92BF92F2
:10064000FF9220912807309129078217930708F01D
:1006500043C02B0166247724852E962EA72EBB241B
:10066000B82DA42F20912E07F42C222391F0E22FF5
:10067000F0E0E49DD001E59DB00DF49DB00D112496
:10068000FB2E289D40011124B92D249F9001112497
:10069000A32FE091340720912F073091300750911C
:1006A0003107E51323C0FC01EE0FFF1F8E0F9F1FC4
:1006B000820F931FE0913107E80FF92FF11DF082AF
:1006C000E0913207E80FF92FF11DB0832091330735
:1006D000820F911DFC01A083FF90BF90AF909F906F
:1006E0008F907F906F905F904F900895880F991F23
:1006F000880F991F820F931FE80FF92FF11D1082A9
:10070000D9CF833081F028F4813099F08230A9F07C
:1007100008958730A9F08830C9F08430B1F4809111
:1007200080008F7D03C0809180008F778093800050
:10073000089584B58F7784BD089584B58F7DFBCFF0
:100740008091B0008F778093B00008958091B000C1
:100750008F7DF9CFCF93DF93282F30E0F901E05759
:10076000FA4F8491F901EC55FA4FD491F901EE5307
:10077000FA4FC491CC23A1F081110E948103EC2F88
:10078000F0E0EE0FFF1FEA57FA4FA591B491EC91FC
:10079000ED2381E090E009F480E0DF91CF910895AE
:1007A00080E090E0FACF1F93CF93DF93282F30E0C3
:1007B000F901E057FA4F8491F901EC55FA4FD491C1
:1007C000F901EE53FA4FC491CC23A9F0162F8111F1
:1007D0000E948103EC2FF0E0EE0FFF1FE854FA4F68
:1007E000A591B4918FB7F894EC91111108C0D095F0
:1007F000DE23DC938FBFDF91CF911F910895DE2B15
:10080000F8CF60E080913E070C94D303CF93DF9341
:10081000CCE3D7E060E08A810E94D30361E08A8163
:10082000DF91CF910C94D303CF93DF9390E0FC0141
:10083000EC55FA4F24918E539A4FFC0184918823F2
:10084000C9F090E0880F991FFC01E458FA4FA59178
:10085000B491FC01E854FA4FC591D49161110DC0D7
:100860009FB7F8948C91209582238C9388812823BC
:1008700028839FBFDF91CF910895623051F49FB7D5
:10088000F8943C91822F809583238C93E8812E2BC2
:10089000EFCF8FB7F894EC912E2B2C938FBFEACF2C
:1008A0003FB7F8948091ED059091EE05A091EF058A
:1008B000B091F00526B5A89B05C02F3F19F0019611
:1008C000A11DB11D3FBFBA2FA92F982F8827BC01AA
:1008D000CD01620F711D811D911D42E0660F771FD2
:1008E000881F991F4A95D1F708950F931F93CF93AF
:1008F000DF93CDB7DEB729970FB6F894DEBF0FBEF2
:10090000CDBF80912F0790913007892B09F47CC0CF
:100910000E94500400913507109136072091370747
:1009200030913807601771078207930740F460938E
:1009300035077093360780933707909338070091F7
:100940003507109136072091370730913807601B23
:10095000710B820B930B6C32714081059105C0F2D3
:10096000F89480912A0790912B079A838983E091CC
:100970002F07F0913007DF011196808189879091D0
:100980002607E0913907F0913A0780913B079923B8
:1009900009F445C09081982B988790818095892390
:1009A0008F838F818C8388E08B8358856F81498505
:1009B0003B812C8189819A81508347FD252F3A956F
:1009C0002083262F39F0441F00C000006083000000
:1009D00000C0F2CF38E04D9160830000019761F7CD
:1009E000F0933A07E093390749873B832C839A8336
:1009F000898378940E94500460933507709336077A
:100A0000809337079093380729960FB6F894DEBF86
:100A10000FBECDBFDF91CF911F910F9108959081AF
:100A2000982B98879081809589238F838F818E83DF
:100A300088E08D8358856F8149853D812E8189812C
:100A40009A81508347FD252F00C000C0208300C03D
:100A500000C000C000C000C060830000262F3A958F
:100A600041F0441F000000C000C000C000C000C032
:100A7000E8CF38E04D9100C0608300C0019709F7CE
:100A8000F0933A07E093390749873D832E83AFCF30
:100A90008F929F92AF92BF92CF92DF92EF92FF928E
:100AA0006B017C010E9450044B015C01C114D10414
:100AB000E104F104B9F00E945004681979098A0927
:100AC0009B09683E73408105910580F321E0C21ABD
:100AD000D108E108F10888EE880E83E0981EA11C79
:100AE000B11CE4CFFF90EF90DF90CF90BF90AF901C
:100AF0009F908F9008952FB7F8946091E9057091B9
:100B0000EA058091EB059091EC052FBF08950895BB
:100B10000895EF92FF920F931F93CF93DF938C0171
:100B20007B01D0E0C0E0F701EC0FFD1F649166236C
:100B300061F0D801ED91FC910190F081E02DC801A8
:100B40000995892B11F02196EECFCE01DF91CF913F
:100B50001F910F91FF90EF900895AF92BF92CF92A7
:100B6000DF92EF92FF920F931F93CF93DF936C016D
:100B70007B018B01040F151FEB015E01AE18BF084E
:100B8000C017D10759F06991D601ED91FC91019000
:100B9000F081E02DC6010995892B79F7C501DF9118
:100BA000CF911F910F91FF90EF90DF90CF90BF906A
:100BB000AF900895FC01538D448D252F30E0842F94
:100BC00090E0821B930B541710F0CF960895019775
:100BD0000895FC01918D828D981761F0A28DAE0F62
:100BE000BF2FB11D5D968C91928D9F5F9F73928FE9
:100BF00090E008958FEF9FEF0895FC01918D828D15
:100C0000981731F0828DE80FF11D858D90E00895E1
:100C10008FEF9FEF0895FC01918D228D892F90E039
:100C2000805C9F4F821B91098F739927089581E4FF
:100C300096E00E940B0621E0892B09F420E0822F28
:100C40000895FC01A48DA80FB92FB11DA35ABF4F61
:100C50002C91848D90E001968F739927848FA689BB
:100C6000B7892C93A089B1898C91837080648C930F
:100C7000938D848D981306C00288F389E02D8081BE
:100C80008F7D80830895EF92FF920F931F93CF93F0
:100C9000DF93EC0181E0888F9B8D8C8D98131AC0B7
:100CA000E889F989808185FF15C09FB7F894EE899E
:100CB000FF896083E889F9898081837080648083FB
:100CC0009FBF81E090E0DF91CF911F910F91FF9046
:100CD000EF900895F62E0B8D10E00F5F1F4F0F73EE
:100CE0001127E02E8C8D8E110CC00FB607FCFACFA9
:100CF000E889F989808185FFF5CFCE010E94210620
:100D0000F1CFEB8DEC0FFD2FF11DE35AFF4FF08279
:100D10009FB7F8940B8FEA89FB8980818062CFCFDF
:100D2000CF93DF93EC01888D8823B9F0AA89BB8922
:100D3000E889F9898C9185FD03C0808186FD0DC00D
:100D40000FB607FCF7CF8C9185FFF2CF808185FF2E
:100D5000EDCFCE010E942106E9CFDF91CF9108951A
:100D6000089520915905260F3327331F213231056D
:100D7000ECF420911706FC0190E080E0243069F04B
:100D800082E00895A09159052191AC01475C5A4F2A
:100D9000A40FB52FB11D2C930196861798F380915F
:100DA0005905680F6093590580E0089581E0089522
:100DB0001092170681E0809316061092F10561E00B
:100DC00082E10E94D30361E083E10E94D303E9EB57
:100DD000F0E080818E7F808380818D7F808388E4B6
:100DE0008093B80085E48093BC000895CF93DF938F
:100DF00091E0909338058823B9F0C091B800D09164
:100E0000BA008091BC008A7B8093BC0060E082E1E4
:100E10000E94D30360E083E10E94D3030E94D806BE
:100E2000D093BA00C093B800DF91CF910895CF92CC
:100E3000DF92EF92FF920F931F93CF93DF93D091A6
:100E4000400681E0D13208F09CC0C0913F060E946C
:100E500050046B017C018091170681116CC082E007
:100E60008093170681E0809316068FEF8093150616
:100E700010921406D0931306AFE1B6E0E3EFF5E06D
:100E800080E0D8138DC01092F2058091F205CC0F4E
:100E9000C82BC093F2058091F105813009F084C020
:100EA0001092F1050E9450046B017C018091F205C3
:100EB0008093BB008091190690911A06A0911B06A1
:100EC000B0911C06892B8A2B8B2BA1F00E94500419
:100ED0000091190610911A0620911B0630911C06EC
:100EE0006C197D098E099F0906171707280739070E
:100EF00008F442C08091BC0083FDD8CF85EC80937C
:100F0000BC000E9450046B017C0180911706823066
:100F100009F44CC0809115068F3F09F469C0809197
:100F20001506803209F466C080911506803309F4F5
:100F300063C084E026C08091190690911A06A091A2
:100F40001B06B0911C06892B8A2B8B2B09F483CFAF
:100F50000E9450040091190610911A0620911B0658
:100F600030911C066C197D098E099F090617170719
:100F70002807390708F06FCF809118060E94F606FF
:100F800085E010921E061092400610921D06DF9119
:100F9000CF911F910F91FF90EF90DF90CF90089528
:100FA0009D9191938F5F6DCF85EEA9CF80911906AA
:100FB00090911A06A0911B06B0911C06892B8A2BD2
:100FC0008B2B09F4A2CF0E945004009119061091B6
:100FD0001A0620911B0630911C066C197D098E099A
:100FE0009F09061717072807390708F08ECFC4CFC7
:100FF00080E0C7CF82E0C5CF83E0C3CF0895E09102
:10100000810580918005E81730F4F0E0E85EFA4F42
:10101000808190E008958FEF9FEF08959091810572
:10102000809180052FEF3FEF981748F4E92FF0E00B
:10103000E85EFA4F208130E09F5F90938105C901FF
:1010400008958091800590918105891B990B0895E1
:10105000CF92DF92EF92FF920F931F93CF93DF9384
:101060007C01CB018A0120911D06222389F0EB012E
:101070006B01C40ED51ECC15DD0569F06991D70151
:10108000ED91FC910190F081E02DC7010995F3CF1E
:10109000642F0E94B106C801DF91CF911F910F917B
:1010A000FF90EF90DF90CF900895CF93DF931F9242
:1010B000CDB7DEB7698320911D062223F9F0209178
:1010C0004006203258F021E030E0FC0133832283D7
:1010D00090E080E00F90DF91CF91089580911E06FF
:1010E000E82FF0E0E15EF94F998190838F5F809364
:1010F0001E068093400681E090E0ECCF61E0CE01D7
:1011000001960E94B106F7CFFC01248131E03093B3
:101110001D0620933F0610921E06109240068385FE
:10112000682B8EED96E00E9455080C94170790E00E
:1011300080E00895CF93DF93D0E0C0E040E05FEF20
:1011400060E070E0CE010E9418032196CE34D105F4
:10115000A9F7DF91CF910C947504FF920F931F9321
:10116000CF93DF93F82E062FC7E0D0E010E061E0C8
:10117000802F0E94D3038F2D0E94AA030C2E01C042
:10118000880F0A94EAF7182B60E0802F0E94D3039F
:10119000219768F7812FDF91CF911F910F91FF90D9
:1011A0000895EF92FF920F931F93CF93DF93809157
:1011B0003F070E94AA03892B31F060E070E0CB0169
:1011C0000E944805F4CFDFB7F89460913E07809104
:1011D0003F070E94AD08082F60913E0780913F07AE
:1011E0000E94AD08C82F60913E0780913F070E9482
:1011F000AD08182FF12CE12C809140078E151F04AB
:1012000079F070F061E080913E070E94D30360E0C6
:1012100080913E070E94D3038FEFE81AF80AECCFC3
:10122000DFBF6C2F70E090E080E0982F872F762F43
:101230006627802B612B000F000B10E030E020E0D0
:10124000302F222711270027602B712B822B932B05
:10125000DF91CF911F910F91FF90EF900895CF9262
:10126000DF92EF92FF92CF93DF93C82FC12CD12C46
:101270007601D0E00E94D108C60ED71EE81EF91EE6
:1012800060E070E0CB010E944805DF5FCD13F2CF34
:101290002C2F30E050E040E0C701B6010E94D52875
:1012A000CA01B901DF91CF91FF90EF90DF90CF900D
:1012B00008950F931F93CF93DF930E942F09CCE3E0
:1012C000D7E00D811E812F813885601B710B820B49
:1012D000930B0E94F92529853A854B855C850E94F0
:1012E000ED27DF91CF911F910F9108953F924F927B
:1012F0005F926F927F928F929F92AF92BF92CF92A6
:10130000DF92EF92FF920F931F93CF93DF9300D062
:1013100000D01F92CDB7DEB70E947B050091BA05C1
:101320001091BB052091BC053091BD056017710778
:101330008207930708F464C18091B105813009F4F4
:101340005FC18091D605813009F45AC18091CF05E3
:10135000813009F455C18091D505813009F450C11F
:101360000E947B050E947B050E947B056B017C012E
:101370000E9401040E947B056C197D098E099F095A
:10138000643F714081059105A8F385E00E942F0913
:101390000091410710914207209143073091440783
:1013A000601B710B820B930B0E94F9256B017C0172
:1013B0008090040590900505A0900605B090070563
:1013C000AC019B01C501B4010E94952887FD2FC186
:1013D00080919B0590919C05A0919D05B0919E05E3
:1013E0008093450790934607A0934707B09348071B
:1013F00082E00E9459098B018D83998385E0382E04
:10140000C12CD12CE12C90E4F92E82E00E945909E4
:101410002B013C0120E030E040E050E4C701B60180
:101420000E9481279B01AC01C701B6010E94ED27F4
:101430004B015C0198014D815981C301B2010E94A9
:101440008027A50194010E94582698014D81598159
:101450000E948127562E672E782E492E262F372F51
:10146000482F592FB8018D8199810E9480279F773D
:101470002DEC3CEC4CEC5DE30E94582669837A83AA
:101480008B839C83A501940160E070E080E89FE37A
:101490000E948027A70196010E9458269B01AC015B
:1014A00069817A818B819C810E9481276B017C01FB
:1014B000852D962DA72DB42D8093E1059093E205FF
:1014C000A093E305B093E4053A94052D162D7D8293
:1014D000498231109ACF0E9406042DEC3CEC4CE47A
:1014E0005DE3B8018D8199810E94F22518160CF4F4
:1014F00042C01092E1051092E2051092E3051092AD
:10150000E4052091D7053091D8054091D905509137
:10151000DA0560E070E0CB010E9480279F772AE027
:1015200037ED43E25CE30E949528181624F0809181
:10153000DB05813039F481E08093B0058093B105FB
:101540001092DB051092D7051092D8051092D9059C
:101550001092DA050E947B056854744F8F4F9F4F9D
:101560006093BA057093BB058093BC059093BD054D
:1015700081E08093D505C090E105D090E205E09030
:10158000E305F090E4052DEC3CEC4CE45DE3C70191
:10159000B6010E94952818169CF52091D705309128
:1015A000D8054091D9055091DA05C701B6010E94CE
:1015B00080279F772AE037ED43E25CE30E9495287D
:1015C00018162CF481E08093B0058093B105C09289
:1015D000D705D092D805E092D905F092DA050E949D
:1015E0007B056854744F8F4F9F4F6093BA0570937B
:1015F000BB058093BC059093BD0581E08093D50524
:101600000F900F900F900F900F90DF91CF911F913F
:101610000F91FF90EF90DF90CF90BF90AF909F9091
:101620008F907F906F905F904F903F900895409083
:1016300008055090090560900A0570900B05A701F8
:101640009601C501B4010E94F22587FF11C0A301D4
:101650009201C701B6010E94F22518164CF0809144
:101660009F059091A005A091A105B091A205B8CECB
:1016700080900C0590900D05A0900E05B0900F0580
:10168000A3019201C701B6010E94952818168CF497
:10169000A5019401C701B6010E94F22518164CF06D
:1016A0008091A3059091A405A091A505B091A605F0
:1016B00097CEA5019401C701B6010E94952818167E
:1016C000BCF4A701960160911005709111058091FD
:1016D0001205909113050E94952887FD09C08091FD
:1016E000A7059091A805A091A905B091AA0578CE6B
:1016F0008091AB059091AC05A091AD05B091AE0580
:101700006FCE0F931F93CF938C01C62F0E94840836
:101710006C2F6460C8010E9484086C2F6B7FC80125
:101720000E94840883EC90E00197F1F7CF911F911C
:101730000F9108950F931F93CF93DF938C01D62FB2
:10174000C42F607F642B0E94810B80E1D89FB00181
:1017500011246C2BC801DF91CF911F910F910C9434
:10176000810B40E061E08AE197E00E949A0B8BE3F5
:101770009FE10197F1F70895CF93DF93CDB7DEB7DF
:1017800028970FB6F894DEBF0FBECDBF98E0E9E012
:10179000F1E0DE01119601900D929A95E1F790919A
:1017A0002207961710F46FEF690F262F30E0220FF3
:1017B000331F41E050E04C0F5D1F240F351FF9012E
:1017C0006081680F606840E08AE197E028960FB674
:1017D000F894DEBF0FBECDBFDF91CF910C949A0B72
:1017E00041E00E949A0B81E090E00895CF93DF934F
:1017F000EC0188819981009711F00E949629198245
:1018000018821D821C821B821A82DF91CF9108955B
:10181000FC0180819181009711F00C949629089524
:101820000C9496292091180730911907232B39F42D
:1018300021E0FC018081882361F020E00AC0BC0126
:1018400080911407909115070E94E52A21E0892BC9
:10185000A1F7822F0895CF93DF93EB010E94192700
:101860008883CE01DF91CF910895FB010190002084
:10187000E9F73197AF01461B570BDC01ED91FC9165
:101880000280F381E02D099469E471E081E496E03F
:101890000C94350CCF93DF93BC0181E496E00E9459
:1018A0008905EC010E94440C8C0F9D1FDF91CF91A4
:1018B0000895CF93DF93FC0144815581608171814C
:1018C00081E496E00E94AD05EC010E94440C8C0F6F
:1018D0009D1FDF91CF9108958F929F92AF92BF92FB
:1018E000EF92FF920F931F93CF93DF93CDB7DEB7A5
:1018F000A1970FB6F894DEBF0FBECDBF7C01FA01F1
:10190000CB0119A2223008F42AE08E010F5D1F4F8F
:10191000822E912CB12CA12CBF01A50194010E9413
:10192000B328F901CA016A300CF5605DD8016E93E5
:101930008D01232B242B252B79F790E080E0109745
:1019400021F0BD01C7010E94350CA1960FB6F89495
:10195000DEBF0FBECDBFDF91CF911F910F91FF90E2
:10196000EF90BF90AF909F908F900895695CDECF0D
:10197000CF92DF92EF92FF92CF93DF93AB01BC0146
:1019800077FF1DC06A017C016DE281E496E00E9450
:101990004306EC0144275527BA014C195D096E092D
:1019A0007F092AE081E496E00E946C0C8C0F9D1F59
:1019B000DF91CF91FF90EF90DF90CF9008952AE0D4
:1019C00081E496E0DF91CF91FF90EF90DF90CF9090
:1019D0000C946C0CCF93DF930E94B80CEC010E9426
:1019E000440C8C0F9D1FDF91CF910895CF93DF930F
:1019F000AC0170E060E02AE081E496E00E946C0CAB
:101A0000EC010E94440C8C0F9D1FDF91CF91089533
:101A1000CF93DF93262F482F50E070E060E081E401
:101A200096E00E946C0CEC010E94440C8C0F9D1FF0
:101A3000DF91CF910895CF93DF93BC0181E496E0CD
:101A40000E94350CEC010E94440C8C0F9D1FDF910D
:101A5000CF9108952F923F924F925F926F927F9213
:101A60008F929F92AF92BF92CF92DF92EF92FF92AE
:101A70001F93CF93DF93EC016A017B01722EAB01C0
:101A80009601CB01B6010E949A286CE471E08111A5
:101A900026C046015701E894B7F82FEF3FEF4FE714
:101AA0005FE7C501B4010E949A2881110CC02FEF95
:101AB0003FEF4FE75FE7C501B4010E94F22560E503
:101AC00071E0181664F02FEF3FEF4FE75FE4C701B6
:101AD000B6010E9495281816B4F464E571E0CE01B1
:101AE000DF91CF911F91FF90EF90DF90CF90BF904B
:101AF000AF909F908F907F906F905F904F903F90AE
:101B00002F900C94350C2FEF3FEF4FE75FECC701A0
:101B1000B6010E94F22587FDE0CF20E030E0A90168
:101B2000C701B6010E94F225312C212C87FF0DC080
:101B3000E881F9810190F081E02D6DE2CE010995F7
:101B40001C01F7FAF094F7F8F09410E060E070E010
:101B500080E09FE3711641F020E030E040E251E484
:101B60000E94ED271F5FF6CFA70196010E948127F3
:101B70002B013C010E9466284B015C012AE0BC015C
:101B8000A401CE010E946C0C7C01E20CF31C112319
:101B9000E1F1C501B4010E94F7259B01AC01C3012D
:101BA000B2010E9480274B015C01E881F98101901C
:101BB000F081E02D6EE2CE010995E80EF91E11507C
:101BC00020F120E030E040E251E4C501B4010E9480
:101BD00058262B013C010E9466284B01B12CA12CF8
:101BE0002AE0B501A401CE010E946C0CE80EF91E9A
:101BF000C501B4010E94F7259B01AC01C301B201EC
:101C00000E9480274B015C01DACFC701DF91CF91A1
:101C10001F91FF90EF90DF90CF90BF90AF909F907B
:101C20008F907F906F905F904F903F902F9008958E
:101C300022E00C942A0DCF92DF92EF92FF920F9345
:101C40001F93CF93DF93CDB7DEB7AC970FB6F89461
:101C5000DEBF0FBECDBFCE0101967C0110E000E0DB
:101C6000C8010E941927F70181937F010F5F1F4F61
:101C70000C321105A9F789819A81AB81BC818093CF
:101C8000040590930505A0930605B09307058D8183
:101C90009E81AF81B88580939B0590939C05A0930E
:101CA0009D05B0939E0589859A85AB85BC858093FB
:101CB000080590930905A0930A05B0930B058D853F
:101CC0009E85AF85B88980939F059093A005A093CA
:101CD000A105B093A20589899A89AB89BC898093B3
:101CE0000C0590930D05A0930E05B0930F058D89FB
:101CF0009E89AF89B88D8093A3059093A405A09386
:101D0000A505B093A605898D9A8DAB8DBC8D80936A
:101D1000100590931105A0931205B09313058D8DB6
:101D20009E8DAF8DB8A18093A7059093A805A09331
:101D3000A905B093AA0589A19AA1ABA1BCA18093E2
:101D4000140590931505A0931605B09317058DA162
:101D50009EA1AFA1B8A58093AB059093AC05A093CD
:101D6000AD05B093AE0565EB71E081E496E00E94AD
:101D7000890561EB71E081E496E00E9489056FE9D5
:101D800071E081E496E00E9489050E94440C04E021
:101D900015E08BE9E82E85E0F82E98E1C92E95E054
:101DA000D92EF80141915191619171918F0181E496
:101DB00096E00E94180E6DE971E081E496E00E94C1
:101DC0008905F70141915191619171917F0181E400
:101DD00096E00E94180E0E94440CC016D10609F726
:101DE00088E591E0AC960FB6F894DEBF0FBECDBF8C
:101DF000DF91CF911F910F91FF90EF90DF90CF90E7
:101E00000C941B0DCF93DF93AB01BC0122E081E466
:101E100096E00E942A0DEC010E94440C8C0F9D1F3D
:101E2000DF91CF9108950C94350C0F931F93CF93AE
:101E3000DF93EC0188819981009759F02A813B81D9
:101E40002617370730F081E0DF91CF911F910F9176
:101E500008958B016F5F7F4F0E941F2A009759F0F2
:101E6000998388831B830A832C813D81232B59F717
:101E7000FC011082E8CF80E0E7CFEF92FF920F9352
:101E80001F93CF93DF93EC01FB01E080F180E1141D
:101E9000F10411F10481158101151105A9F08C815E
:101EA0009D81080F191FB801CE010E94150F8823CC
:101EB00099F0288139818C819D81B701820F931F10
:101EC0000E94EE2A1D830C83CE01DF91CF911F91DA
:101ED0000F91FF90EF900895CE010E94F60BF4CF82
:101EE000EF92FF920F931F93CF93DF9300D0CDB764
:101EF000DEB78C0169831A82FC01E480F580FFEF74
:101F0000EF1AFF0AB7010E94150F882381F0F8012C
:101F10002081318184819581BE016F5F7F4F820F67
:101F2000931F0E94EE2AF801F582E48281E00F906F
:101F30000F90DF91CF911F910F91FF90EF90089537
:101F4000CF938091E705882309F440C0C1E081E484
:101F500096E00E940B06892BC9F181E496E00E946D
:101F6000E905682F8A3011F4C093AF058091000114
:101F7000882379F06B3211F06D3211F4C093910522
:101F8000862F062E000C990BC0970A9710F4C09369
:101F900090058091AF058111DACF80919605882355
:101FA00091F080919105882339F08EE097E00E94AE
:101FB000700F10920001CBCF80919005882319F00B
:101FC00088E097E0F4CF84E197E0F1CFCF910895D6
:101FD0000E94170681110C94A00F0895EF92FF92B2
:101FE0000F931F93CF93DF93EC017B018A01BA011A
:101FF0000E94150F81110BC0CE010E94F60BCE017D
:10200000DF91CF911F910F91FF90EF9008951D8365
:102010000C83B701888199810E94EE2AF0CFFB01E1
:1020200001900020E9F73197AF01461B570B0C9444
:10203000EE0F0F931F93CF93DF93CDB7DEB7629769
:102040000FB6F894DEBF0FBECDBF8C01FC0111822C
:102050001082138212821582148244E1BE016F5FE6
:102060007F4F80E290E00E940022BE016F5F7F4FB1
:10207000C8010E940F1062960FB6F894DEBF0FBE23
:10208000CDBFDF91CF911F910F91089585ED809382
:10209000BC008091190690911A06A0911B06B09180
:1020A0001C060796A11DB11D23E0B695A79597952F
:1020B00087952A95D1F72091BC0024FD03C010928A
:1020C000170608954091190650911A0660911B0653
:1020D00070911C06452B462B472B69F30097A105F1
:1020E000B10541F02AE22A95F1F700C00197A10954
:1020F000B109E1CF809118060C94F606FF920F9378
:102100001F93CF93DF93EC01F62E08811981C8014C
:102110000E941927F81621F06F2DC8010E9421276F
:10212000CE01DF91CF911F910F91FF9008950F93F2
:102130001F93CF93DF9300D0CDB7DEB78B019A8387
:102140008983FB016081CE0101960E947E10C80147
:102150000F900F90DF91CF911F910F910895AF9243
:10216000BF92CF92DF92EF92FF920F931F93CF9384
:10217000DF9300D0CDB7DEB78B016B0128E0C20E34
:10218000D11C7B015C01A61AB70AC5018E0D9F1DEB
:102190009A838983F70161917F01CE0101960E94A4
:1021A0007E10EC14FD0489F7C8010F900F90DF91A9
:1021B000CF911F910F91FF90EF90DF90CF90BF9044
:1021C000AF9008951F920F920FB60F9211242F9384
:1021D0003F938F939F93AF93BF938091E905909125
:1021E000EA05A091EB05B091EC053091E80523E0FC
:1021F000230F2D3758F50196A11DB11D2093E80539
:102200008093E9059093EA05A093EB05B093EC0564
:102210008091ED059091EE05A091EF05B091F0054C
:102220000196A11DB11D8093ED059093EE05A0933D
:10223000EF05B093F005BF91AF919F918F913F91C2
:102240002F910F900FBE0F901F90189526E8230F27
:102250000296A11DB11DD2CF1F920F920FB60F9201
:1022600011242F933F934F935F936F937F938F939B
:102270009F93AF93BF93EF93FF9381E496E00E9407
:102280002106FF91EF91BF91AF919F918F917F9127
:102290006F915F914F913F912F910F900FBE0F90D3
:1022A0001F9018951F920F920FB60F9211242F9323
:1022B0008F939F93EF93FF93E0915106F091520615
:1022C0008081E0915706F091580682FD1BC09081F5
:1022D00080915A068F5F8F7320915B06821741F0C1
:1022E000E0915A06F0E0EF5BF94F958F80935A0624
:1022F000FF91EF919F918F912F910F900FBE0F90B3
:102300001F9018958081F4CF1F920F920FB60F92F5
:1023100011242F933F934F935F936F937F938F93EA
:102320009F93AF93BF93EF93FF938091B900887F02
:10233000803609F44AC0F0F5883209F4A7C018F5D0
:10234000803109F49BC0B8F4882309F4F9C08830BF
:1023500009F494C0FF91EF91BF91AF919F918F913C
:102360007F916F915F914F913F912F910F900FBE91
:102370000F901F901895883109F488C0803251F76A
:102380008093150614C0803409F49DC040F4803356
:10239000B9F38833F9F68093150685ECB0C0803523
:1023A00009F485C0883509F496C0883499F60E94EE
:1023B0004610D0CF883909F48CC038F5883729F019
:1023C00050F4883611F0803729F683E080931706A1
:1023D00010927B0557C0883809F47BC0803919F00A
:1023E000803809F0B7CF80917B05803208F071C04A
:1023F000E0917B0581E08E0F80937B058091BB008F
:10240000F0E0E55AFA4F80833DC0803B39F0E0F4BC
:10241000803A09F479C0883A09F09CCF84E080932F
:10242000170610925A0510925905E0917E05F09119
:102430007F0509958091590581110FC081E0809336
:1024400059051092390509C0803C09F4A6CF883C93
:1024500009F4A3CF883B09F07DCFE0915A0581E0D4
:102460008E0F80935A05F0E0E75CFA4F80818093ED
:10247000BB0090915A058091590529C08091F205C1
:102480008093BB0085EC8093BC0064CF90911406D0
:1024900080911306981758F5E091140681E08E0F8D
:1024A00080931406F0E0ED50FA4F8081E9CFE0917F
:1024B000140681E08E0F809314068091BB00F0E03B
:1024C000ED50FA4F8083909114068091130698176F
:1024D000C8F285E8D8CFE091140681E08E0F809392
:1024E00014068091BB00F0E0ED50FA4F808380919C
:1024F000160681115CCF81E08093F10584EA809318
:10250000BC001092170626CF85EC8093BC00109279
:10251000170680917B05803230F4E0917B05F0E076
:10252000E55AFA4F108260917B0570E0E0917C05DE
:10253000F0917D058BE595E0099510927B050ACF1A
:102540001092150634CFFC01118210821382128280
:1025500015821482FB0101900020E9F73197AF0149
:10256000461B570B0C94EE0F109244061092430634
:1025700088EE93E0A0E0B0E0809345069093460695
:10258000A0934706B093480625E131E03093420618
:102590002093410625EC30E030934E0620934D0603
:1025A00024EC30E03093500620934F0620EC30E0CE
:1025B000309352062093510621EC30E030935406BC
:1025C0002093530622EC30E03093560620935506B4
:1025D00026EC30E0309358062093570610925A06A6
:1025E00010925B0610925C0610925D061092E10656
:1025F0001092E0068093E2069093E306A093E4062F
:10260000B093E50687E291E09093DF068093DE06C3
:1026100085E491E090933D0780933C071092410739
:1026200010924207109243071092440780E090E016
:10263000A0E8BFE38093450790934607A093470720
:10264000B09348071092270710922E071092350773
:1026500010923607109237071092380781E0809366
:102660003407809331071092320792E0909333073A
:10267000809326078AEE90E090932B0780932A0799
:102680000E94FA289093300780932F07009709F44F
:1026900075C02AEEFC0111922A95E9F78EE490E0CC
:1026A000909329078093280780E190E090932D076D
:1026B00080932C0780912707882341F061E080E117
:1026C0000E94140460E080E10E94D303E2EDF5E093
:1026D000E491F0E0EE0FFF1FE854FA4F85919491DA
:1026E00090933A0780933907E4EBF5E0E491E093A7
:1026F0003B0710921D0710921C0789E391E090930D
:102700001B0780931A0787E280931E0784E180935A
:10271000230784E080932407109225076BE471E07F
:1027200084E197E00E94A3126BE471E08EE097E0F1
:102730000E94A3126BE471E088E097E00E94A3126C
:102740006BE471E082E097E00E94A3126BE471E019
:102750008CEF96E00E94A3126DE671E086EF96E0A2
:102760000E94A3126BE471E080EF96E00E94A31236
:102770006BE771E08AEE96E00C94A31210922B079F
:1027800010922A0710922907109228078DCFCF9315
:10279000DF93CDB7DEB7E8970FB6F894DEBF0FBE74
:1027A000CDBF789484B5826084BD84B5816084BDDA
:1027B00085B5826085BD85B5816085BD80916E00DF
:1027C000816080936E001092810080918100826010
:1027D000809381008091810081608093810080914D
:1027E00080008160809380008091B100846080933C
:1027F000B1008091B00081608093B00080917A0038
:10280000846080937A0080917A00826080937A005D
:1028100080917A00816080937A0080917A0080684C
:1028200080937A001092C100109281051092800569
:1028300010921E06109240060E94D80687E895E086
:1028400090937F0580937E0588E895E090937D05C1
:1028500080937C05E0915106F091520682E08083DE
:10286000E0914D06F0914E061082E0914F06F091F6
:10287000500680E1808310925906E0915506F09150
:10288000560686E08083E0915306F09154068081DD
:1028900080618083E0915306F091540680818860C6
:1028A0008083E0915306F091540680818068808394
:1028B000E0915306F091540680818F7D808362E021
:1028C00081E10E94140485EB91E00E941B0DF12C24
:1028D000E12C11E001E000931D0610933F061092D9
:1028E0001E06109240060E9417078111ADC161ECCF
:1028F00071E081E496E00E94130F103130F460EE35
:1029000071E081E496E00E94130F60E170E0812F96
:102910000E94080D2FEFE21AF20A1F5F1F37D9F647
:102920008DEF91E0EF2811F083E192E00E941B0D02
:1029300068EE73E080E090E00E9448051092810507
:102940001092800510921E06109240060E94D80632
:1029500087E895E090937F0580937E0588E895E071
:1029600090937D0580937C0510921F07809124072A
:10297000823018F098E090931F078093220762E35B
:1029800070E080E090E00E944805609125078AE1B0
:1029900097E00E94840868EE73E080E090E00E9477
:1029A000480560E38AE197E00E94810B0BE416E49E
:1029B000C8010197F1F760E38AE197E00E94810B7B
:1029C000C8010197F1F760E38AE197E00E94810B6B
:1029D00083E592E00197F1F760E28AE197E00E94D7
:1029E000810B60911F07606240E08AE197E00E94DE
:1029F0009A0B84E08093200740E06CE08AE197E046
:102A00000E949A0B0E94B10B82E08093210740E064
:102A100066E08AE197E00E949A0B40E062E08AE17A
:102A200097E00E949A0B8BE39FE10197F1F788E012
:102A30008093250760E08AE197E00E94840860E0C7
:102A400082E00E94BC0B69E172E08AE197E00E949B
:102A5000130F62E084E00E94BC0B69E272E08AE13D
:102A600097E00E94130F63E080E00E94BC0B65E3D7
:102A700072E08AE197E00E94130F68EB7BE080E050
:102A800090E00E9448050E94B10B0E947B0581E006
:102A90008093DB0586E792E00E944A0C8DE492E089
:102AA0000E944A0C8EE292E00E944A0C8AEE91E06B
:102AB0000E944A0C04E610E0CE0101965C017C0104
:102AC000C8010E941927F50181935F0165E070E05C
:102AD00080E090E00E9448050F5F1F4F0836110507
:102AE00079F789819A81AB81BC818093820590932B
:102AF0008305A0938405B09385056FEB71E081E4B5
:102B000096E00E948905609182057091830580910D
:102B10008405909185050E94EA0C8FE080933E0722
:102B20008EE080933F0761E08FE00E94140460E034
:102B300080913F070E94140481E08093400760E089
:102B400080913E070E94D3030E94D10880E490E068
:102B50000E9419278093B20581E490E00E94192712
:102B60008093B30582E490E00E9419278093B40516
:102B700083E490E00E9419278093B50565EE75E027
:102B800080E890E00E942B0C6CEC75E08AE890E005
:102B90000E942B0C68E472E081E496E00E94130F1F
:102BA0006091B2057091B3058091B4059091B5051F
:102BB0000E94EA0C8091B2059091B305A091B405F2
:102BC000B091B5058093410790934207A0934307C6
:102BD000B09344070E941B0E1092E70580912C07CA
:102BE00090912D0797FD08C061E00E94140460E0F9
:102BF00080912C070E94D30381E0809327070E94D5
:102C0000750460912E076C39E1F120912F07309106
:102C10003007615081F170E08FEF9BE90E949F289F
:102C2000F90140912A0750912B07CF01821B930B8A
:102C30008417950718F54081469FC001479F900D66
:102C4000112490833196EDCF843009F066CE62EE88
:102C500071E081E496E00E94130F103130F460EED1
:102C600071E081E496E00E94130F60E170E0812F33
:102C70000E94080D52CE70E060E0D2CF8CE98093C4
:102C80002E0710E000E040E050E0BA01C8010E94C9
:102C900018030F5F1F4F0E341105A9F70E9475042A
:102CA0000E947B056C507E4F8F4F9F4F6093BA05FB
:102CB0007093BB058093BC059093BD05C7010E942E
:102CC0001910CE01C3960E9419101AA619A61CA6A7
:102CD0001BA61EA61DA66BA97CA9CE0189965C0128
:102CE0006115710521F04FA958AD0E94EE0F6AEEF3
:102CF00076E0C5010E943D0FB7010E943D0FE6E05E
:102D0000803F9E0769F0FC0160817181611571054A
:102D100009F468C54481558180EF96E00E94EE0F6A
:102D2000C5010E94080CCE01C3960E94080CC70181
:102D30000E94080CDD24D3948091E705813009F0CE
:102D400040C21091E605113009F03BC28091AF05F9
:102D5000882309F417C16BE675E081E496E00E94D0
:102D6000890584E197E00E94590C0E947B05605D13
:102D70007A488F4F9F4F6093C8057093C905809321
:102D8000CA059093CB0582E692E00E94120C88233C
:102D900009F447C080919B0590919C05A0919D05E9
:102DA000B0919E058093970590939805A0939905FF
:102DB000B0939A056DE575E081E496E00E9489057F
:102DC00084E197E00E94590C109396056BE475E03E
:102DD00081E496E00E9489056091960570E090E09C
:102DE00080E00E94B80C0E94440C66E375E081E428
:102DF00096E00E94890560919705709198058091F1
:102E0000990590919A050E94020F1093D605109291
:102E1000D5056BE471E084E197E00E940F101092F9
:102E2000AF058CE692E00E94120C882351F0D092FC
:102E3000CF056BE471E084E197E00E940F101092DF
:102E4000AF0587E792E00E94120C882309F485C041
:102E500080919605882361F188E295E00E944A0CF2
:102E60002DEC3CEC4CEC5DE3609192057091930588
:102E700080919405909195050E94F22587FF08C0E6
:102E80001092920510929305109294051092950558
:102E9000109296050E941B0E0E94B10B60E084E028
:102EA0000E94BC0B61E872E08AE197E00E94130F78
:102EB0006AE175E081E496E00E94890584E197E08B
:102EC0000E94590C68E075E081E496E00E94890553
:102ED0006091960570E090E080E00E94B80C0E943E
:102EE000440CD092D5051092E70560ED77E080E0C4
:102EF00090E00E9448050E94B10B60E080E00E94D3
:102F0000BC0B62E972E08AE197E00E94130F61E076
:102F100080E00E94BC0B67EA72E08AE197E00E94C1
:102F2000130F62E080E00E94BC0B67EB72E08AE165
:102F300097E00E94130F63E080E00E94BC0B66ECF8
:102F400072E08AE197E00E94130F6BE471E084E184
:102F500097E00E940F101092AF05809196058111A5
:102F60000FC088ED92E00E94120C81110E94760938
:102F70006BE471E084E197E00E940F101092AF05BE
:102F8000D092000180919605882309F418C10E940F
:102F9000010487EF94E00E944A0C0E94B10B60E0AC
:102FA00080E00E94BC0B6DED72E08AE197E00E9428
:102FB000130F80919105882309F421C46EEE74E00B
:102FC00081E496E00E9489058EE097E00E94590C0A
:102FD00067ED74E081E496E00E94890580910E0718
:102FE00090910F07009709F402C40E94D9210E9412
:102FF000EA0C80910E0790910F07009709F4FBC32C
:103000000E94D9210E94F9259B01AC01609197058E
:10301000709198058091990590919A050E94812759
:1030200060939705709398058093990590939A05FE
:1030300060EC74E081E496E00E9489056091970558
:10304000709198058091990590919A050E94020FC0
:103050006BE471E084E197E00E940F106BE471E093
:103060008EE097E00E940F10109291051092AF052C
:103070008091970590919805A0919905B0919A0536
:103080008093450790934607A0934707B09348075E
:1030900085E00E942F092B013C0140928805509247
:1030A000890560928A0570928B0585E00E942F0940
:1030B0000091410710914207209143073091440746
:1030C000601B710B820B930B0E94F92560938C059A
:1030D00070938D0580938E0590938F0585E00E94F7
:1030E000590960939205709393058093940590938A
:1030F0009505C301B2010E94B80C6BE574E081E450
:1031000096E00E94890540918C0550918D05609153
:103110008E0570918F0581E496E00E94180E68E597
:1031200074E081E496E00E948905409192055091F7
:103130009305609194057091950581E496E00E9455
:10314000180E62E574E081E496E00E94890563E46C
:1031500074E081E496E00E94890560919705709182
:1031600098058091990590919A050E94020F0E94FE
:10317000B10B60E080E00E94BC0B65E374E08AE183
:1031800097E00E94890540919205509193056091C6
:103190009405709195058AE197E00E94180E61E30D
:1031A00074E08AE197E00E9489050E94060468EEB7
:1031B00073E080E090E00E9448050E9401040E94B4
:1031C00006048091E60581110AC060E082E00E9459
:1031D000BC0B69E172E08AE197E00E94130F8091D5
:1031E000E705813021F48091E605813091F160910D
:1031F000CC0570E090E080E00E94F9251B012C01D5
:103200006090E1057090E2058090E3059090E40500
:10321000A40193010E94F22587FF58C58091B00553
:103220008130B9F48091E505813009F038C510E0AE
:1032300000E040E050E06FEF70E0C8010E9418032A
:103240000F5F1F4F0E341105A1F70E9475041092F5
:10325000B0050E9476098091B105882309F460C009
:103260002090E1053090E2054090E3055090E405A0
:10327000850122E043E0C201B1010E94B721BF9263
:10328000AF928DE193E09F938F93FF92EF920E9414
:10329000F52AC7010E941B0D0E94B10B62E082E07B
:1032A0000E94BC0B62E273E08AE197E00E94130F78
:1032B0006091CC0570E090E080E00E94F9259B01D0
:1032C000AC010F900F900F900F900F900F90C201D4
:1032D000B1010E94952862E087FD0AC58BE00E943B
:1032E000BC0BB7018AE197E00E94130F63E086E010
:1032F0000E94BC0B6BE273E08AE197E00E94130F1F
:103300000E947B056C507E4F8F4F9F4F6093C4058A
:103310007093C5058093C6059093C7051092B105BB
:103320008091CF05882309F4AAC00E94010484E398
:1033300093E00E941B0D6AE070E080E090E00E9444
:1033400048050E94B10B60E080E00E94BC0B6DED6F
:1033500072E08AE197E00E94130F8AE00E942F0931
:103360000E94F9250E945F286093410770934207ED
:10337000809343079093440784E10E942F09609350
:10338000B2057093B3058093B4059093B50502EB35
:1033900015E080E4882E912C9A828982F80161914F
:1033A0008F01C7010E947E10FFEF8F1A9F0A24E44D
:1033B0008216910489F788E593E00E941B0D0E9414
:1033C000B10B60E080E00E94BC0B65E673E08AE12F
:1033D00097E00E94130F68EE73E080E090E00E9497
:1033E00048050E94B10B60E080E00E94BC0B62E9DE
:1033F00072E08AE197E00E94130F61E080E00E9492
:10340000BC0B67EA72E08AE197E00E94130F62E06A
:1034100080E00E94BC0B67EB72E08AE197E00E94BB
:10342000130F63E080E00E94BC0B66EC72E08AE15F
:1034300097E00E94130F0E9406048091B2059091BC
:10344000B305A091B405B091B50580934107909361
:103450004207A0934307B093440761E773E081E418
:1034600096E00E94130F6091B2057091B3058091B0
:10347000B4059091B5050E94EA0C1092CF05809199
:10348000D505882309F439C481E10E94AA038C017F
:103490008091E605882309F48DC58091E605813089
:1034A00009F07EC08091D40581117AC08091CD054C
:1034B000811176C081E10E94AA034C018091010133
:1034C000909102018816990651F00E947B05609345
:1034D000B6057093B7058093B8059093B9050E941F
:1034E0007B052091B6053091B7054091B805509104
:1034F000B905621B730B840B950B63337105810552
:10350000910508F449C08091BE059091BF058816C9
:10351000990609F441C09092BF058092BE058114BE
:103520009104D1F58091E0058F5F843008F0DDC50E
:103530008093E0050E947B056093B6057093B70504
:103540008093B8059093B9050E947B0564527A4F29
:103550008F4F9F4F6093DC057093DD058093DE05F0
:103560009093DF050E947B05605A75418F4F9F4FF6
:103570006093C8057093C9058093CA059093CB05E5
:103580006AEA73E081E496E00E94130F6AE070E05B
:103590008091E0050E94080D909202018092010145
:1035A0008091E605813009F07FC08091D40581309B
:1035B00009F07AC08091CD05811176C081E10E9429
:1035C000AA034C018091010190910201881699068D
:1035D00051F00E947B056093B6057093B705809308
:1035E000B8059093B9050E947B052091B6053091EE
:1035F000B7054091B8055091B905621B730B840B58
:10360000950B633371058105910508F449C08091DC
:10361000BE059091BF058816990609F441C09092A5
:10362000BF058092BE0581149104D1F58091CE052D
:103630008F5F853008F05CC58093CE050E947B05C6
:103640006093B6057093B7058093B8059093B9055C
:103650000E947B0564527A4F8F4F9F4F6093DC0529
:103660007093DD058093DE059093DF050E947B0556
:10367000605A75418F4F9F4F6093C8057093C9057D
:103680008093CA059093CB056BEB73E081E496E0E1
:103690000E94130F6AE070E08091CE050E94080D31
:1036A00090920201809201018091CD05813009F054
:1036B00094C08091E605813009F08FC081E10E94BD
:1036C000AA034C018091010190910201881699068C
:1036D00051F00E947B056093B6057093B705809307
:1036E000B8059093B9050E947B052091B6053091ED
:1036F000B7054091B8055091B905621B730B840B57
:10370000950B633371058105910508F466C08091BE
:10371000BE059091BF058816990609F45EC0909287
:10372000BF058092BE05892809F057C08091CC055D
:103730008F5F8093CC050E94B10B60E080E00E9417
:10374000BC0B6EEC73E08AE197E00E94130F60E01F
:1037500080E10E94BC0B4091CC0550E070E060E03D
:103760002AE08AE197E00E946C0C8091CC058932B6
:1037700010F01092CC050E947B056093B605709303
:10378000B7058093B8059093B9050E947B05605FEB
:10379000784D8F4F9F4F6093DC057093DD058093CC
:1037A000DE059093DF050E947B05605A75418F4FBF
:1037B0009F4F6093C8057093C9058093CA05909385
:1037C000CB056FED73E081E496E00E94130F6AE091
:1037D00070E08091CC050E94080D109302010093C7
:1037E00001019BC280EF96E00E94F60B99CA60E04F
:1037F00070E0CB01FCCB60E070E0CB0103CC8091AA
:103800009005882309F45DC067EB74E081E496E0DD
:103810000E94890588E097E00E94590C68E974E0ED
:1038200081E496E00E94890580910807909109073C
:10383000009709F442C00E94D5210E94020F809196
:1038400008079091090720E030E0A901009721F0D6
:103850000E94D5219B01AC0160918C0570918D0572
:1038600080918E0590918F050E94ED2760939705BA
:10387000709398058093990590939A0560E874E099
:1038800081E496E00E948905609197057091980502
:103890008091990590919A050E94020F6BE471E066
:1038A00084E197E00E940F106BE471E088E097E0FC
:1038B0000E940F1010929005D9CB60E070E0CB0110
:1038C000BCCF67E774E081E496E00E94890584E15B
:1038D00097E00E94590C6EE574E081E496E00E9446
:1038E000890584E197E00E94590C82EF92E00E94E2
:1038F000120C8823C1F110928705109286058091E1
:103900008C0590918D05A0918E05B0918F058983CE
:103910009A83AB83BC838091970590919805A09181
:103920009905B0919A058D839E83AF83B887B701BF
:1039300090E080E00E94AF106FE174E081E496E0D7
:103940000E94890580918605909187050E94F60C5A
:1039500088E094E00E944A0C6BE471E084E197E017
:103960000E940F1083CB89EF92E00E94120C8823F3
:1039700091F188E090E0909387058093860580918F
:103980008C0590918D05A0918E05B0918F0589834E
:103990009A83AB83BC838091970590919805A09101
:1039A0009905B0919A058D839E83AF83B887B7013F
:1039B00088E090E00E94AF1066EF73E081E496E04B
:1039C0000E94890580918605909187050E94F60CDA
:1039D0008FED93E0BFCF80E093E00E94120C88232C
:1039E00091F1E0E1F0E0F0938705E09386058091A6
:1039F0008C0590918D05A0918E05B0918F058983DE
:103A00009A83AB83BC838091970590919805A09190
:103A10009905B0919A058D839E83AF83B887B701CE
:103A200080E190E00E94AF106DEC73E081E496E0DD
:103A30000E94890580918605909187050E94F60C69
:103A400086EB93E087CF87E093E00E94120C8823F7
:103A500091F188E190E090938705809386058091AD
:103A60008C0590918D05A0918E05B0918F0589836D
:103A70009A83AB83BC838091970590919805A09120
:103A80009905B0919A058D839E83AF83B887B7015E
:103A900088E190E00E94AF1064EA73E081E496E070
:103AA0000E94890580918605909187050E94F60CF9
:103AB0008DE893E04FCF8EE093E00E94120C8823B4
:103AC00091F1E0E2F0E0F0938705E09386058091C4
:103AD0008C0590918D05A0918E05B0918F058983FD
:103AE0009A83AB83BC838091970590919805A091B0
:103AF0009905B0919A058D839E83AF83B887B701EE
:103B000080E290E00E94AF106BE773E081E496E002
:103B10000E94890580918605909187050E94F60C88
:103B200084E693E017CF85E193E00E94120C88238E
:103B300009F412CF8701912C812CC4010E9419270E
:103B4000F80181938F01FFEF8F1A9F0A28E28216F6
:103B5000910499F781E593E00E944A0C62E473E0D6
:103B600081E496E00E94890549815A816B817C81BC
:103B700081E496E00E94180E60E473E081E496E030
:103B80000E9489056DE273E081E496E00E94890558
:103B90006D817E818F8198850E94020F6EE173E0B6
:103BA00081E496E00E94890549855A856B857C856C
:103BB00081E496E00E94180E6CE173E081E496E0E7
:103BC0000E94890569E073E081E496E00E9489051E
:103BD0006D857E858F8598890E94020F6AEF72E05D
:103BE00081E496E00E94890549895A896B897C891C
:103BF00081E496E00E94180E68EF72E081E496E09E
:103C00000E94890565EE72E081E496E00E948905D4
:103C10006D897E898F89988D0E94020F66ED72E012
:103C200081E496E00E948905498D5A8D6B8D7C8DCB
:103C300081E496E00E94180E64ED72E081E496E063
:103C40000E94890561EC72E081E496E00E9489059A
:103C50006D8D7E8D8F8D98A10E94020F62EB72E0B8
:103C600081E496E00E94890549A15AA16BA17CA13B
:103C700081E496E00E94180E60EB72E081E496E029
:103C80000E9489056DE972E081E496E00E94890551
:103C90006DA17EA18FA198A50E94020F5DCE8230FA
:103CA00019F40E949A08D3CA833009F0D0CA10E0F0
:103CB00000E04FEF50E060E070E0C8010E941803A0
:103CC0000F5F1F4F0E341105A1F7BFCAA401930166
:103CD000C201B1010E94952887FDBBCA8091B00541
:103CE000813009F0B6CA1092B0050E949A08B1CA94
:103CF0008BE00E94BC0BB701FFCA0E947B050091BC
:103D0000C4051091C5052091C6053091C7056017FF
:103D100071078207930708F4B7CB1091E0051123D0
:103D200009F447C00E947B054090DC055090DD05FA
:103D30006090DE057090DF056415750586059705B2
:103D4000C0F181E10E94AA03892B09F0D4C10E942D
:103D5000B10B60E080E00E94BC0B6FEF73E08AE182
:103D600097E00E94130FD092DB051092E1051092AC
:103D7000E2051092E3051092E4051092D705109227
:103D8000D8051092D9051092DA051092E605109226
:103D9000D6051092D5051092E0051092E70560E077
:103DA00080E00E94BC0B61E174E08AE197E00E9430
:103DB000130F8091D405813009F052C00E947B0519
:103DC0000091D0051091D1052091D2053091D305F5
:103DD000601771078207930708F442C083E994E0F3
:103DE0000E941B0D0E94B10B60E080E00E94BC0BA2
:103DF0006AEA74E08AE197E00E94130F60ED77E0D1
:103E000080E090E00E9448050E94B10B60E080E0F5
:103E10000E94BC0B62E972E08AE197E00E94130FF6
:103E200061E080E00E94BC0B67EA72E08AE197E003
:103E30000E94130F62E080E00E94BC0B67EB72E00F
:103E40008AE197E00E94130F63E080E00E94BC0BC0
:103E500066EC72E08AE197E00E94130F1092D4059D
:103E60001091CE05112329F10E947B054090DC05BD
:103E70005090DD056090DE057090DF0564157505D6
:103E800086059705B0F081E10E94AA03892B09F00D
:103E900098C10E947B056C597F4F8F4F9F4F609355
:103EA000D0057093D1058093D2059093D3051092DD
:103EB000CE058091CD05882329F10E947B050091D4
:103EC000DC051091DD052091DE053091DF056017DE
:103ED000710782079307B0F06CEC75E08AE890E018
:103EE0000E9497100E947B056C597F4F8F4F9F4F08
:103EF0006093D0057093D1058093D2059093D3053C
:103F00001092CD051091E605113009F049C00E94CC
:103F10007B054090C8055090C9056090CA05709017
:103F2000CB056415750586059705D0F18CEE94E0F8
:103F30000E941B0D0E94B10B60E080E00E94BC0B50
:103F40006FEF73E08AE197E00E94130F1093DB0597
:103F50001092E1051092E2051092E3051092E4053B
:103F60001092D7051092D8051092D9051092DA0553
:103F70001092E6051092D6051092D5051092E00534
:103F80001092D4051092CE051092E70560E080E013
:103F90000E94BC0B61E174E08AE197E00E94130F7C
:103FA0000E941706882311F40C949C160E94A00FFF
:103FB0000C949A168091010190910201081719073B
:103FC00051F00E947B056093C0057093C1058093FA
:103FD000C2059093C3050E947B052091C0053091D6
:103FE000C1054091C2055091C305621B730B840B40
:103FF000950B613273408105910508F44ECA80919A
:10400000BE059091BF050817190709F459C0109310
:10401000BF050093BE050115110509F03ECA1092B7
:10402000E1051092E2051092E3051092E40510926A
:10403000D7051092D8051092D9051092DA058EE7AF
:1040400093E00E941B0D0E94B10B60E080E00E9493
:10405000BC0B62E972E08AE197E00E94130F61E015
:1040600080E00E94BC0B67EA72E08AE197E00E9460
:10407000130F62E080E00E94BC0B67EB72E08AE104
:1040800097E00E94130F63E080E00E94BC0B66EC97
:1040900072E08AE197E00E94130F0E947B05605A4C
:1040A00075418F4F9F4F6093C8057093C9058093EA
:1040B000CA059093CB05D092E605D092D605EDC9FE
:1040C0000E947B056C597F4F8F4F9F4F6093BA05BD
:1040D0007093BB058093BC059093BD051092E605D7
:1040E0001092D6051092D505D8C91092E00522CAC3
:1040F0001092CE05A3CA113091F50E94B10B60E079
:1041000080E00E94BC0B66E274E08AE197E00E94C6
:10411000130F61E080E00E94BC0B64E374E08AE16D
:1041200097E00E94130F62E080E00E94BC0B64E401
:1041300074E08AE197E00E94130F1093D4050E9467
:104140007B05605F784D8F4F9F4F6093D0057093D4
:10415000D1058093D2059093D3051092E00580910C
:10416000E0058230A1F489E594E00E941B0D0E94D5
:10417000B10B60E080E00E94BC0B6BE674E08AE16A
:1041800097E00E94130FD092CF051092E005809126
:10419000E005833009F00DCE86E794E00E941B0D08
:1041A0000E94B10B60E080E00E94BC0B68E874E004
:1041B0008AE197E00E94130F1092E005D092E70584
:1041C000F8CD113021F51093E50565EE75E080E836
:1041D00090E00E9497100E94B10B60E080E00E9486
:1041E000BC0B6CEB74E08AE197E00E94130F0E9415
:1041F0007B056053784F8F4F9F4F6093D00570932E
:10420000D1058093D2059093D3051092CE0580916D
:10421000CE05823021F58093E50565EE75E080E8F6
:1042200090E00E9497100E94B10B60E080E00E9435
:10423000BC0B6BEC74E08AE197E00E94130F0E94C4
:104240007B056053784F8F4F9F4F6093D0057093DD
:10425000D1058093D2059093D3051092CE0580911D
:10426000CE05833021F58093E50565EE75E080E8A5
:1042700090E00E9497100E94B10B60E080E00E94E5
:10428000BC0B6CED74E08AE197E00E94130F0E9472
:104290007B056053784F8F4F9F4F6093D00570938D
:1042A000D1058093D2059093D3051092CE058091CD
:1042B000CE05843009F0FDCD0E94B10B60E080E0B6
:1042C0000E94BC0B6EEC73E08AE197E00E94130F32
:1042D0000E947B05605A75418F4F9F4F6093D005B8
:1042E0007093D1058093D2059093D3050E947B05EE
:1042F000605E714B8F4F9F4F6093DC057093DD05BF
:104300008093DE059093DF05D092CD05D0CD8AEE67
:1043100096E00E94080C80EF96E00E94080C86EF61
:1043200096E00E94080C8CEF96E00E94080C82E058
:1043300097E00E94080C88E097E00E94080C8EE04D
:1043400097E00E94080C84E197E00E94080C80919D
:104350002F07909130070E94962980912C07909109
:104360002D0797FD03C060E00C9414040895EF92AC
:104370000F931F93CF93DF93E80134E047FD34E1BF
:10438000042E000C550B57FF03C051954195510960
:10439000E32E022F242FAE010E943A22CE01DF919C
:1043A000CF911F910F91EF900895662777270C9476
:1043B00099231F93FC0199278827BC01E894119148
:1043C0001032E9F3193010F01E30C8F31B3251F0EF
:1043D0001D3249F4689406C00E940B22610F711DC2
:1043E000811D911D119110531A30B0F33EF4909538
:1043F0008095709561957F4F8F4F9F4F1F910895C6
:10440000BB274A3031F4992322F4BDE2909581957F
:104410009F4F0C942122592F482F372F262F660F9C
:10442000771F881F991F660F771F881F991F620FBC
:10443000731F841F951F660F771F881F991F08958C
:10444000BB27FB015527AA27880F991FAA1FA4176E
:1044500010F0A41B83955051B9F7A05DAA3308F062
:10446000A95DA193009779F7B111B1931192CB0196
:104470000C94E225A9E0B0E0E0E4F2E20C944027DD
:104480006A01F22EB02E102FFBE3AF2EA01608F417
:104490001BE31F5F012F27E0AE014F5F5F4F0E94BC
:1044A000E924BC018981982F9970913009F43FC0AB
:1044B0009BE2E1FC04C09E2D9170E0FC3AC05E2DB1
:1044C0005071E82FE87083FF46C084E0911101C06D
:1044D00083E0EF2DE81B8F1508F0E0E0D6018E2F6A
:1044E00020E2552351F1992329F0D6019C93C6016E
:1044F00001966C0196012D5F3F4FE2FE24C08EE4D1
:10450000D6018C9391E411969C93119712968C93FB
:10451000D9018E2F90E281111BC0E20FF32FF11D04
:1045200010828EEF9FEF2996ECE00C945C279DE2C1
:10453000C6CF90E2C4CF2D9381508111FCCFCE0E17
:10454000D11CE0E0D0CF8EE6D6018C9391E6DBCF94
:104550009D938150E0CF482F447082FF3DC084E09E
:10456000911101C083E08F1510F4EF2DE81BD601E7
:104570008E2F20E2552309F1992329F0D6019C932F
:10458000C60101966C0196012D5F3F4FE2FE1BC0F4
:1045900089E4D6018C938EE411968C93119786E46E
:1045A00012968C93D9018E2F90E2882309F4B5CF0F
:1045B0009D938150FACF2D9381508111FCCFCE0E67
:1045C000D11CE0E0D9CF89E6D6018C938EE6119616
:1045D0008C93119786E6E4CF9B0177FF02C030E011
:1045E00020E0A1E0B0E0911102C0B0E0A0E0F9014C
:1045F0003196AE0FBF1F8B2C912CBB2009F461C0EC
:104600005401EFEFAE1ABE0AAA0DBB1DFA161B0627
:1046100019F014F04F2D4A1B511188C0E3FC59C00A
:104620007601A42FB0E2A1114FC0C40ED11C992372
:1046300009F45BC040E0D6011196F60190836D014C
:10464000552309F448C0012F060F9A81582F507145
:1046500084FF03C0913309F4015010160CF047C0D9
:10466000093008F008E0EEE2FE2E5B01A01AB10866
:1046700085019194819491082F3F320729F4D60146
:10468000FC92F60131966F016217730794F10217DD
:1046900013077CF5DB01A21BB30BAA24A394B12C56
:1046A000AC0EBD1EAA0DBB1D11968C912150310977
:1046B000D601119628153905F4F0F60180836D01B5
:1046C000DBCFB12CA12CA0CFF701B1937F01A1507A
:1046D000AACF9111B0CFD601942F50E302C05D93C1
:1046E00091509111FCCFC40ED11C40E0ACCF01E041
:1046F000BACF80E3DBCF6217730731F4963388F4C7
:10470000953311F4552369F0F6018083FD01842F60
:1047100090E2811108C0A40FB11D1C9290E080E0CE
:1047200002CF81E3F1CF91938150F3CF911183CFE9
:104730008ACFB0E0A0E0EFE9F3E20C9440275C01FF
:104740007B016115710519F0DB018D939C93850147
:104750000F5F1F4FF501D0818D2F90E00E94C12582
:104760006C01892BB9F5DD32B9F50F5F1F4FD5010B
:104770001196DC91C1E05801F1E0AF1AB10843E0B5
:1047800050E060E770E0C5010E94CA25892B69F5F9
:10479000680182E0C80ED11C45E050E06BE670E095
:1047A000C6010E94CA25892B21F4680197E0C90E31
:1047B000D11CE114F10419F0D701CD92DC9260E034
:1047C00070E080E89FEFC111FFC060E070E080E81A
:1047D0009FE7FAC05801BBCFDB3229F485010E5F99
:1047E0001F4FF501D181C0E0C6CF43E050E068E63D
:1047F00070E0C5010E94CA25892BE9F0F80110E09C
:1048000000E020E030E0A9015F01B0ED8B2E8D0EBD
:1048100089E08815C8F19C2E689491F88C2F8870D7
:10482000C2FF16C0811102C00F5F1F4F3196D50124
:10483000DC91C92DE9CFE114F10429F00E5F1F4F7F
:10484000F7011183008360E070E080EC9FE7BCC05B
:10485000882311F001501109A5E0B0E00E942F2734
:104860009B01AC01220F331F441F551F280D311D22
:10487000411D511D283999E93907490799E159071F
:10488000A8F2C6609C2ED2CFAEEF8A1206C0C3FD3E
:104890003CC09C2E689493F8C9CFDF7DD534A9F530
:1048A00080818D3239F4C061DF011296818162E02E
:1048B00070E006C0DF018B32C1F3119661E070E059
:1048C00080535D01A61AB70A8A30F8F4E0E8CE16E4
:1048D000ECE0DE065CF4B601660F771F660F771F0B
:1048E000C60ED71ECC0CDD1CC80ED11C5D01FFEF1F
:1048F000AF1ABF0A8C9180538A30A8F1C4FF03C05D
:10490000D194C194D1080C0D1D1DC1FF09C0E11443
:10491000F10431F081E0A81AB108D701AD92BC9240
:10492000CA01B9010E94F725C370C33009F4905839
:104930004B015C0120E030E0A9010E94F2258823B0
:1049400009F440C0CFE9D0E017FF05C011950195EB
:104950001109C7E8D0E06E01B8E1CB1AD10880E2B6
:10496000E82EF12C0FC0D501B1CFFE012591359174
:10497000459154910E191F09C501B4010E94582692
:104980004B015C01D501C4010E151F0574F7249776
:10499000F594E794CC16DD06A9F78A2F880F8B2FA4
:1049A000881F8F3F49F020E030E0A901C501B40124
:1049B0000E94F225811106C082E290E090934A079E
:1049C00080934907C501B401CDB7DEB7ECE00C9484
:1049D0005C27283008F027E03327DA01990F311DD2
:1049E00087FD916000966105710539F432602E5F94
:1049F0003D9330E32A95E1F708959F3F30F08038EA
:104A00007105610509F03C5F3C5F3D93913008F012
:104A10008068911DDF93CF931F930F93FF92EF92C6
:104A2000192F987F9695E92F96959695E90FFF2770
:104A3000E350FF4F99273327EE24FF24A701E70116
:104A400005900894079428F4360FE71EF81E491FB6
:104A5000511D660F771F881F991F0694A1F70590B7
:104A6000079428F4E70EF81E491F561FC11D770F43
:104A7000881F991F661F0694A1F70590079428F4D4
:104A8000F80E491F561FC71FD11D880F991F661F9B
:104A9000771F0694A1F70590079420F4490F561F3D
:104AA000C71FD81F990F661F771F881F0694A9F785
:104AB00084911095177041F0D695C79557954795F5
:104AC000F794E7941A95C1F7E3EAF0E0689415903B
:104AD000159135916591959105907FE27395E11857
:104AE000F10A430B560BC90BD009C0F7E10CF11EBC
:104AF000431F561FC91FD01D7EF4703311F48A95D1
:104B0000E6CFE894015030F0080F0AF400270217AE
:104B100008F4202F2395022F7A3328F079E37D9330
:104B20002A95E9F710C07D932A9589F60694979502
:104B30006795379517951794E118F10A430B560BB3
:104B4000C90BD00998F023957E9173957A3308F0BC
:104B500070E37C932013B8F77E9170617D9330F001
:104B6000839571E37D9370E32A95E1F71124EF902B
:104B7000FF900F911F91CF91DF91992787FD90951D
:104B8000089591110C94C526803219F089508550F2
:104B9000C8F70895FB01DC014150504088F08D9129
:104BA00081341CF08B350CF4805E659161341CF00F
:104BB0006B350CF4605E861B611171F3990B0895DF
:104BC000881BFCCFDC01FC01672F71917723E1F793
:104BD000329704C07C916D9370836291AE17BF07CA
:104BE000C8F308950E94342608F481E00895E894FB
:104BF00009C097FB3EF490958095709561957F4F25
:104C00008F4F9F4F9923A9F0F92F96E9BB279395D2
:104C1000F695879577956795B795F111F8CFFAF4E2
:104C2000BB0F11F460FF1BC06F5F7F4F8F4F9F4F13
:104C300016C0882311F096E911C0772321F09EE871
:104C4000872F762F05C0662371F096E8862F70E0D7
:104C500060E02AF09A95660F771F881FDAF7880FB1
:104C60009695879597F90895990F0008550FAA0B07
:104C7000E0E8FEEF16161706E807F907C0F012166F
:104C80001306E407F50798F0621B730B840B950B72
:104C900039F40A2661F0232B242B252B21F40895C7
:104CA0000A2609F4A140A6958FEF811D811D089564
:104CB0000E946B260C94DF260E94D12638F00E94B9
:104CC000D82620F0952311F00C94C8260C94CE26FB
:104CD00011240C9413270E94F02670F3959FC1F3C2
:104CE000950F50E0551F629FF001729FBB27F00D9A
:104CF000B11D639FAA27F00DB11DAA1F649F6627EF
:104D0000B00DA11D661F829F2227B00DA11D621F3D
:104D1000739FB00DA11D621F839FA00D611D221FF7
:104D2000749F3327A00D611D231F849F600D211DDB
:104D3000822F762F6A2F11249F5750409AF0F1F05E
:104D400088234AF0EE0FFF1FBB1F661F771F881FC7
:104D500091505040A9F79E3F510580F00C94C82611
:104D60000C9413275F3FE4F3983ED4F38695779530
:104D70006795B795F795E7959F5FC1F7FE2B880F6D
:104D8000911D9695879597F90895992788270895F5
:104D900097F99F6780E870E060E008959FEF80ECEE
:104DA000089500240A941616170618060906089591
:104DB00000240A9412161306140605060895092EF7
:104DC0000394000C11F4882352F0BB0F40F4BF2B66
:104DD00011F460FF04C06F5F7F4F8F4F9F4F0895A6
:104DE00057FD9058440F551F59F05F3F71F047959C
:104DF000880F97FB991F61F09F3F79F08795089581
:104E0000121613061406551FF2CF4695F1DF08C09F
:104E1000161617061806991FF1CF869571056105BC
:104E200008940895E894BB2766277727CB0197F964
:104E30000895F999FECF92BD81BDF89A992780B562
:104E40000895262FF999FECF1FBA92BD81BD20BDCE
:104E50000FB6F894FA9AF99A0FBE019608950E9437
:104E60007127A59F900DB49F900DA49F800D911D5B
:104E7000112408952F923F924F925F926F927F92EA
:104E80008F929F92AF92BF92CF92DF92EF92FF925A
:104E90000F931F93CF93DF93CDB7DEB7CA1BDB0B06
:104EA0000FB6F894DEBF0FBECDBF09942A883988AB
:104EB00048885F846E847D848C849B84AA84B984B2
:104EC000C884DF80EE80FD800C811B81AA81B981BE
:104ED000CE0FD11D0FB6F894DEBF0FBECDBFED01D2
:104EE0000895A29FB001B39FC001A39F700D811DC3
:104EF0001124911DB29F700D811D1124911D0895E3
:104F00005058BB27AA270E9498270C94DF260E949E
:104F1000D12638F00E94D82620F039F49F3F19F4AA
:104F200026F40C94CE260EF4E095E7FB0C94C826EC
:104F3000E92F0E94F02658F3BA1762077307840717
:104F4000950720F079F4A6F50C9412270EF4E0955D
:104F50000B2EBA2FA02D0B01B90190010C01CA0133
:104F6000A0011124FF27591B99F0593F50F4503EDE
:104F700068F11A16F040A22F232F342F4427585FD0
:104F8000F3CF469537952795A795F0405395C9F7E8
:104F90007EF41F16BA0B620B730B840BBAF09150A0
:104FA000A1F0FF0FBB1F661F771F881FC2F70EC03F
:104FB000BA0F621F731F841F48F487957795679512
:104FC000B795F7959E3F08F0B0CF9395880F08F0FE
:104FD0009927EE0F9795879508950E9401280C94C4
:104FE000DF260E94D82658F00E94D12640F029F4EE
:104FF0005F3F29F00C94C82651110C9413270C9490
:10500000CE260E94F02668F39923B1F3552391F33D
:10501000951B550BBB27AA2762177307840738F027
:105020009F5F5F4F220F331F441FAA1FA9F335D084
:105030000E2E3AF0E0E832D091505040E695001C38
:10504000CAF72BD0FE2F29D0660F771F881FBB1FF2
:10505000261737074807AB07B0E809F0BB0B802DD0
:10506000BF01FF2793585F4F3AF09E3F510578F0FC
:105070000C94C8260C9413275F3FE4F3983ED4F3B6
:10508000869577956795B795F7959F5FC9F7880FD0
:10509000911D9695879597F90895E1E0660F771F22
:1050A000881FBB1F621773078407BA0720F0621BB3
:1050B000730B840BBA0BEE1F88F7E09508950E94DE
:1050C00066286894B1110C94132708950E94F8265D
:1050D00088F09F5798F0B92F9927B751B0F0E1F0B9
:1050E000660F771F881F991F1AF0BA95C9F714C069
:1050F000B13091F00E941227B1E008950C9412276C
:10510000672F782F8827B85F39F0B93FCCF38695A1
:1051100077956795B395D9F73EF4909580957095FE
:1051200061957F4F8F4F9F4F08950E94342608F45A
:105130008FEF08950E943426880B990B0895AA1BBF
:10514000BB1B51E107C0AA1FBB1FA617B70710F072
:10515000A61BB70B881F991F5A95A9F780959095A4
:10516000BC01CD010895A1E21A2EAA1BBB1BFD01B3
:105170000DC0AA1FBB1FEE1FFF1FA217B307E40736
:10518000F50720F0A21BB30BE40BF50B661F771F8E
:10519000881F991F1A9469F760957095809590956E
:1051A0009B01AC01BD01CF010895052E97FB1EF4B4
:1051B00000940E94EC2857FD07D00E94B32807FCFA
:1051C00003D04EF40C94EC285095409530952195E1
:1051D0003F4F4F4F5F4F0895909580957095619523
:1051E0007F4F8F4F9F4F0895EE0FFF1F0590F49153
:1051F000E02D09940F931F93CF93DF938230910595
:1052000010F482E090E0E0914D07F0914E0730E01D
:1052100020E0B0E0A0E0309799F42115310509F4C1
:105220004AC0281B390B24303105D8F58A819B816F
:105230006115710589F1FB0193838283FE0111C021
:10524000408151810281138148175907E0F04817C6
:10525000590799F4109761F012960C9312971396D0
:105260001C933296CF01DF91CF911F910F9108953A
:1052700000934D0710934E07F4CF2115310551F0DF
:105280004217530738F0A901DB019A01BD01DF0184
:10529000F801C1CFEF01F9CF90934E0780934D07EE
:1052A000CDCFFE01E20FF31F81939193225031097C
:1052B00039832883D7CF20914B0730914C07232B7C
:1052C00041F4209105013091060130934C07209361
:1052D0004B0720910301309104012115310541F460
:1052E0002DB73EB74091070150910801241B350BA3
:1052F000E0914B07F0914C07E217F307A0F42E1B47
:105300003F0B2817390778F0AC014E5F5F4F241729
:10531000350748F04E0F5F1F50934C0740934B07E3
:10532000819391939FCFF0E0E0E09CCFCF93DF9308
:105330000097E9F0FC01329713821282A0914D0789
:10534000B0914E07ED0130E020E01097A1F42081EC
:105350003181820F931F20914B0730914C07281702
:10536000390709F061C0F0934C07E0934B07DF91D8
:10537000CF910895EA01CE17DF07E8F54A815B81F6
:105380009E0141155105B1F7E901FB83EA8349917B
:105390005991C40FD51FEC17FD0761F480819181ED
:1053A0000296840F951FE9019983888382819381F6
:1053B0009B838A83F0E0E0E012968D919C91139795
:1053C0000097B9F52D913C911197CD010296820F6E
:1053D000931F20914B0730914C072817390739F656
:1053E000309751F510924E0710924D07B0934C072D
:1053F000A0934B07BCCFD383C28340815181840FDC
:10540000951FC817D90761F44E5F5F4F8881998156
:10541000480F591F518340838A819B8193838283E4
:105420002115310509F0B0CFF0934E07E0934D07F9
:105430009ECFFD01DC01C0CF13821282D7CFB0E036
:10544000A0E0E5E2FAE20C943C278C01009751F4CD
:10545000CB010E94FA288C01C801CDB7DEB7E0E18C
:105460000C945827FC01E60FF71F9C0122503109CC
:10547000E217F30708F49DC0D901CD91DC91119793
:10548000C617D70798F0C530D10530F3CE01049781
:105490008617970708F3C61BD70B2297C193D193A2
:1054A0006D937C93CF010E949629D6CF5B01AC1AF5
:1054B000BD0A4C018C0E9D1EA0914D07B0914E0768
:1054C000512C412CF12CE12C109731F580914B0798
:1054D00090914C078815990509F05CC0461657064F
:1054E00008F058C08091030190910401009741F4A5
:1054F0008DB79EB74091070150910801841B950B11
:10550000E817F90708F055C0F0934C07E0934B07F4
:10551000F90171836083A0CF8D919C9111971296B0
:105520006C90129713967C901397A815B90559F5AE
:105530006C0142E0C40ED11CCA14DB0420F1AC01A2
:105540004A195B09DA011296159780F0628273821C
:1055500051834083D9016D937C93E114F10471F080
:10556000D7011396FC93EE93129776CF22968C0F69
:105570009D1FF90191838083F301EFCFF0934E07D4
:10558000E0934D0769CF4816590608F42C017D01B8
:10559000D3019ACFCB010E94FA287C01009749F0F1
:1055A000AE01B8010E94DC2AC8010E949629870139
:1055B00053CF10E000E050CFFB01DC0102C00190AE
:1055C0000D9241505040D8F70895FB01DC018D91B8
:1055D000019080190110D9F3990B0895FB01DC01AA
:1055E00001900D920020E1F70895AEE0B0E0EBEFFE
:1055F000FAE20C9448270D891E8986E08C831A8371
:1056000009838FEF9FE79E838D83AE01475E5F4FD7
:105610006F89788DCE0101960E94182B2F813885D5
:10562000020F131FF80110822E96E4E00C946427F9
:10563000ABE0B0E0EEE1FBE20C943A277C013B01E9
:105640008A01FC0117821682838181FFC8C1CE01C5
:1056500001965C01F7019381F30193FD859193FF1E
:1056600081913F01882309F453C1853239F493FDB8
:10567000859193FF81913F01853229F4B70190E034
:105680000E94082DE7CF912C212C312CFFE1F3153E
:1056900038F08B3211F190F4803209F1833229F124
:1056A00037FC3CC020ED280F2A3050F536FE20C0D4
:1056B0008AE0989E200D1124922E06C08D3291F022
:1056C000803371F7689430F8F30193FD859193FF6F
:1056D00081913F018111DACF21C0689431F868943B
:1056E00032F8F2CF689433F8EFCF689434F8ECCF07
:1056F000EAE02E9E200D1124222E689435F8E4CF86
:105700008E3229F436FC04C1689436F8DDCF8C362D
:1057100019F4689437F8D8CF8836B1F2982F9F7D66
:1057200095549330E0F08336A1F18337C1F183358E
:1057300009F063C02801F2E04F0E511CF801C0804F
:10574000D180692D70E036FC02C06FEF7FEFC6019B
:105750000E94F22C4C01689437F882010AC00C5F59
:105760001F4FFFE3F98388248394912C6501E8940B
:1057700037F833FE2DC0522C8114910471F5552059
:1057800009F468CFB70180E290E00E94082D5A9496
:10579000F6CFF801808189830E5F1F4FE4CF280187
:1057A000F2E04F0E511CF801C080D180692D70E0ED
:1057B00036FC02C06FEF7FEFC6010E94FD2C4C014A
:1057C0008201D5CFB70180E290E00E94082D2A9493
:1057D0002814190409F0B0F7CECFF60137FC8591F3
:1057E00037FE81916F01B70190E00E94082D5110A2
:1057F0005A94F1E08F1A9108BFCF843619F0893698
:1058000009F077C0F80137FE6BC060817181828139
:1058100093810C5F1F4FF32DFF763F2E97FF09C03A
:1058200090958095709561957F4F8F4F9F4F6894AD
:1058300037F82AE030E0A5010E94382DC82ECA189A
:105840008C2C432C36FE0CC0E89440F8C91440F46C
:1058500034FE05C032FC03C0F32DFE7E4F2E892C92
:1058600044FE95C0FE01EC0DF11D8081803309F0EE
:1058700087C0242D297E422E842D8870582E43FC0B
:1058800095C040FE8FC09C2C821418F42C0C922CD6
:10589000981844FE91C0B70180E390E00E94082D63
:1058A00042FE09C088E790E041FE02C088E590E032
:1058B000B7010E94082DC91408F48AC0CA94D12CDB
:1058C0009FEFC91AD90ACA0CDB1CF60182916F013D
:1058D000B70190E00E94082DAC14BD04B1F74FCF82
:1058E00060817181072E000C880B990B0E5F1F4F92
:1058F00092CFD32CE894D4F82AE030E0853739F100
:10590000232D297FD22E8F3601F148F48835A9F056
:10591000F701868197812B96E2E10C945627803718
:1059200049F08837A9F7D4FE02C06894D2F820E184
:1059300030E00DC06894D4F8F6CF34FE03C0822F57
:105940008660D82E20E132E002C028E030E0F80185
:10595000D7FE0FC060817181828193810C5F1F4FE0
:10596000A5010E94382DC82ECA183D2CE89437F89E
:1059700067CF6081718190E080E00E5F1F4FF0CFB4
:1059800042FC02C0839478CF8394839475CF842D96
:10599000867809F471CFF6CFB70180E290E00E94DB
:1059A000082D83948214C0F3512C73CF522C5818B5
:1059B000821408F46ECFF8CF842D867809F47BCF5B
:1059C0008BE241FE80E247FC8DE2B70190E071CFAF
:1059D000B70180E390E00E94082D9A946CCF8FEF7E
:1059E0009FEF99CFFC010590615070400110D8F7EE
:1059F000809590958E0F9F1F0895FC016150704017
:105A000001900110D8F7809590958E0F9F1F0895F3
:105A10000F931F93CF93DF93182F092FEB018B81E7
:105A200081FD09C01FEF0FEF812F902FDF91CF91E4
:105A30001F910F91089582FF14C02E813F818C81A8
:105A40009D81281739073CF4E881F981CF0101963F
:105A50009983888310838E819F8101969F838E8393
:105A6000E3CFE885F985812F0995892BA1F3DACF5A
:105A7000FA01AA27283051F1203181F1E8946F937F
:105A80006E7F6E5F7F4F8F4F9F4FAF4FB1E03ED025
:105A9000B4E03CD0670F781F891F9A1FA11D680FC3
:105AA000791F8A1F911DA11D6A0F711D811D911DF6
:105AB000A11D20D009F468943F912AE0269F11246B
:105AC0003019305D3193DEF6CF010895462F4770CF
:105AD000405D4193B3E00FD0C9F7F6CF462F4F702A
